:020000040800F2
:10000000C0080020CD01000871040008A104000808
:10001000A5040008A9040008AD04000800000000C1
:10002000000000000000000000000000B104000813
:10003000B304000800000000B5040008B70400087D
:10004000E7010008E7010008E7010008E7010008F0
:10005000E7010008E7010008E7010008C7040008FD
:10006000C9040008CB040008E7010008E701000804
:10007000E7010008E7010008E7010008E7010008C0
:10008000E7010008E7010008E7010008E7010008B0
:10009000E7010008E7010008E7010008C5040008BF
:1000A000E7010008E7010008E7010008E701000890
:1000B000E7010008B9040008E7010008E7010008AB
:1000C000E7010008E7010008E7010008E701000870
:1000D000E701000873040008E7010008E7010008D1
:1000E000E7010008E7010008E7010008E701000850
:1000F000E7010008E7010008E7010008E701000840
:10010000E7010008E7010008E7010008E70100082F
:10011000E7010008E7010008E7010008E70100081F
:10012000E7010008E7010008E7010008E70100080F
:1001300000F002F800F03AF80AA090E8000C8244BF
:100140008344AAF10107DA4501D100F02FF8AFF29C
:10015000090EBAE80F0013F0010F18BFFB1A43F0A5
:1001600001031847A05E0000C05E0000103A24BFE3
:1001700078C878C1FAD8520724BF30C830C144BF0C
:1001800004680C607047000000230024002500264E
:10019000103A28BF78C1FBD8520728BF30C148BFEA
:1001A0000B6070471FB51FBD10B510BD05F0A8FE50
:1001B0001146FFF7F7FF00F09DF805F0C6FE03B407
:1001C000FFF7F2FF03BC05F0CDFE000009488047B1
:1001D00009480047FEE7FEE7FEE7FEE7FEE7FEE729
:1001E000FEE7FEE7FEE7FEE704480549054A064B41
:1001F000704700003320000831010008C0020020D1
:10020000C0080020C0040020C004002070B50446CF
:100210000D46E1B25D4801F0D5FD00BF80215B488D
:1002200001F03EFE0028F9D0204670BD1FB54FF406
:10023000165000900020ADF80400ADF80600ADF8AF
:100240000800ADF80C000C20ADF80A0069464F48D4
:1002500001F0BFFC012240F225514C4801F051FD54
:1002600001214A4801F041FD4021484801F025FEA6
:100270001FBD08B54FF40070ADF8000003208DF8E5
:10028000020018208DF803006946414800F030FA5A
:100290004FF48060ADF8000004208DF8030069463B
:1002A0003B4800F025FA4FF4FC70ADF80000032045
:1002B0008DF8020010208DF803006946354800F0E3
:1002C00017FA08BD10B501F0B4FE0121042000F0BA
:1002D000CBFC0121082000F0C7FC0121880300F0BD
:1002E000C3FC0121084600F0BFFC01212A4800F0B0
:1002F000D0FA10BDA2B00224FFF7E4FFFFF7B9FF68
:10030000FFF794FF01A800F072F93EE0601CC0B254
:1003100004460F2800DD02240F2023461822142152
:10032000009001A802F0A0F80F200090601EC3B258
:100330001822142101A802F097F80F202346182252
:100340002821009001A802F08FF80F200090601E75
:10035000C3B21822282101A802F086F80F202346F4
:1003600018223C21009001A802F07EF80F20009096
:10037000601EC3B218223C2101A802F075F801A842
:1003800001F01BFF322000F056F8BFE700380140B3
:1003900000080140000C01400002300010B500F0E0
:1003A000F5FA4FF4803000F011FB00F04EFB01280D
:1003B00020D1002000F08FFB002000F09EFB4FF4C6
:1003C000806000F091FB4FF4E0114FF4803000F0BA
:1003D00065FB012000F06EFB00BF392000F019FB27
:1003E0000028FAD0022000F068FB00BF00F06EFB8E
:1003F0000828FBD110BD00E0401E0028FCD170474A
:10040000014601EBC1024FF0E0235A6100229A61DC
:1004100001221A6100BF4FF0E022106900F00102D2
:100420001AB100F48032002AF5D000224FF0E02308
:100430001A619A617047014642F228324A434FF0EE
:10044000E0235A6100229A6101221A6100BF4FF035
:10045000E022106900F001021AB100F48032002A93
:10046000F5D000224FF0E0231A619A617047000036
:10047000704710B540F22551144801F027FD70B1C6
:10048000124801F0A3FC04462146104801F09AFCF2
:1004900000BF80210D4801F003FD0028F9D010BDF8
:1004A00000BFFEE700BFFEE700BFFEE700BFFEE7BC
:1004B000704770477047704710B50121044801F03C
:1004C00041FB10BD704770477047704700380140CE
:1004D000000400402DE9F04104460E4615461F4633
:1004E000A6F128002C287AD2DFE800F016231F1B83
:1004F0001725797979797979797979797979797922
:100500007979797926313C3D3E3F404142434E590D
:1005100066676465686C717565E00120FFF770FFC0
:1005200061E06420FFF76CFF5DE00A20FFF783FFC6
:1005300059E000BF57E056E025B10821394800F0E6
:1005400084F903E00821374800F081F94BE025B138
:100550001021344800F079F903E01021314800F00F
:1005600076F940E03FE03EE03DE03CE03BE03AE051
:1005700039E025B140212B4800F067F903E0402124
:10058000284800F064F92EE025B12021254800F02C
:100590005CF903E02021234800F059F923E025B15C
:1005A0008021204800F051F903E080211D4800F02F
:1005B0004EF918E017E016E015E014E0002084F88A
:1005C000270010E0002084F827000CE007E000205E
:1005D00084F8270007E0002084F8270003E00120CA
:1005E00084F8270000BF00BF0120BDE8F08110B5EE
:1005F000A2B00446AFF223130B4A0C4901A802F043
:1006000047FA01A805F0E6FA002101A805F0EBFA87
:1006100001A801F08FFD842201A9204605F0F2FB1C
:1006200022B010BD000C014029410008745F000891
:1006300010B50446CC48844208D10121042000F0C2
:100640002DFB0021042000F029FB46E0C74884422E
:1006500008D10121082000F021FB0021082000F032
:100660001DFB3AE0C248844208D10121102000F06D
:1006700015FB0021102000F011FB2EE0BD48844244
:1006800008D10121202000F009FB0021202000F0EA
:1006900005FB22E0B848844208D10121402000F047
:1006A000FDFA0021402000F0F9FA16E0B348844238
:1006B00008D10121802000F0F1FA0021802000F013
:1006C000EDFA0AE0AE48844207D10121801500F01E
:1006D000E5FA0021A01500F0E1FA10BD10B50121E6
:1006E000084600F0DBFA0021012000F0D7FA10BD27
:1006F0002DE9F041024600250026002000230024B9
:10070000002791F803C00CF00F0591F803C00CF01E
:10071000100CBCF1000F03D091F802C04CEA0505A3
:1007200091F800C0BCF1000F31D0146800202BE01C
:100730004FF0010C0CFA00F3B1F800C00CEA03060C
:100740009E4220D183004FF00F0C0CFA03F7BC43FC
:1007500005FA03FC4CEA040491F803C0BCF1280F2D
:1007600006D14FF0010C0CFA00FCC2F814C00AE0EC
:1007700091F803C0BCF1480F05D14FF0010C0CFA01
:1007800000FCC2F810C0401C0828D1D31460B1F896
:1007900000C0BCF1FF0F34DD546800202EE000F1F2
:1007A000080C4FF0010808FA0CF3B1F800C00CEA8D
:1007B00003069E4221D183004FF00F0C0CFA03F781
:1007C000BC4305FA03FC4CEA040491F803C0BCF1F5
:1007D000280F05D100F1080C08FA0CF8C2F81480B3
:1007E00091F803C0BCF1480F07D100F1080C4FF09D
:1007F000010808FA0CF8C2F81080401C0828CED373
:100800005460BDE8F0814FF6FF71018002218170D4
:100810000421C17070470246002093680B400BB161
:10082000012000E0002070470146886880B27047D0
:1008300002460020D3680B400BB1012000E00020ED
:1008400070470146C86880B27047016170474161D6
:1008500070470AB1016100E041617047C1607047B3
:100860004FF480320A4382618161826182698269C8
:10087000704702460020434B18684FF680731840BB
:1008800040EA021008433F4B186070473E49C86178
:100890007047F0B50A46002300240021002500F02F
:1008A0000046B6F1004F02D1364EF16901E0354EF7
:1008B0007168C0F3034583B200F44016B6F5401FDB
:1008C00008D121F070612F4E766826F070662D4FAA
:1008D0007E6012E000F48016B6F5801F06D1032674
:1008E00006FA05F4A14341F0706106E0460D3601B9
:1008F00003FA06F6B14341F0706122B1460D3601AC
:1009000003FA06F6314300F00046B6F1004F02D17B
:100910001C4EF16101E01B4E7160F0BD30B500224C
:100920008B071C0F0F2303FA04F2164B08338C10AD
:1009300053F824309343134C08348D1044F8253079
:1009400023468C1053F824308C07240F00FA04F44B
:1009500023430C4C08348D1044F8253030BD0A492F
:10096000DC3108607047000000080140000C0140C5
:10097000001001400014014000180140001C01401B
:10098000002001400000014000002042DF480068D4
:1009900040F00100DD49086008464068DC49084035
:1009A000DA49486008460068DA490840D7490860D3
:1009B0000846006820F4802008600846406820F45B
:1009C000FE0048604FF41F0088607047CF490968F7
:1009D00021F48031CD4A11601146096821F480214B
:1009E0001160B0F5803F03D0B0F5802F0ED106E046
:1009F000C649096841F48031C44A116007E0C3491F
:100A0000096841F4A021C14A116000E000BF00BFA5
:100A1000704710B501460022002300204A11012A28
:100A200002D1BA4C236806E0022A02D1B74C236AED
:100A300001E0B64C636A01F01F02012494401C409F
:100A40000CB1012000E0002010BD38B5002000905E
:100A50000024002500BF3120FFF7DBFF054600988A
:100A6000401C00900098B0F5A06F01D0002DF2D08E
:100A70003120FFF7CEFF08B1012400E0002420461A
:100A800038BD01460020A14A106820F0F80040EA75
:100A9000C10010607047A0490860704702460020FE
:100AA0009A4B586820F47C1042EA01031843974B94
:100AB0005860704798490866704701460020934A7D
:100AC000506820F003000843506070478F4840682A
:100AD00000F00C007047014600208C4A506820F05E
:100AE000F00008435060704701460020874A506874
:100AF00020F4E06008435060704701460020834ABC
:100B0000506820F4605040EAC1005060704729B13D
:100B10007E4A527A02437D4B5A7204E07B4A527AF3
:100B200082437A4B5A7270477B49D83108607047CC
:100B300001460020754A506820F440400843506048
:100B400070470021714A20321170704A82F82010DB
:100B5000012802D004280AD104E001216B4A203286
:100B6000117005E00521694A2032117000E000BFD4
:100B700000BF70476949086070476449096A0143CA
:100B8000624A11627047654944390860704730B560
:100B900000210022002400235C4D6D6805F00C014B
:100BA00021B1042905D0082923D105E05C4D056059
:100BB00022E05B4D05601FE0544D6D6805F4701236
:100BC000524D6D6805F48034022505EB92421CB944
:100BD000544D554305600BE04C4D6D6805F40035F0
:100BE0001DB1504D5543056002E04D4D5543056024
:100BF00002E04B4D056000BF00BF444D6D6805F03D
:100C0000F0010909484D6B5C0568DD4045603F4DCA
:100C10006D6805F4E061090A434D6B5C4568DD4091
:100C200085603A4D6D6805F46051C90A3E4D6B5CB4
:100C30004568DD40C560354D6D6805F44041890B60
:100C40003A4D6B5CC568B5FBF3F5056130BD29B164
:100C50002E4A526902432D4B5A6104E02B4A5269D5
:100C600082432A4B5A61704729B1284A926902434C
:100C7000264B9A6104E0254A92698243234B9A618C
:100C8000704729B1214AD2690243204BDA6104E05E
:100C90001E4AD26982431D4BDA61704729B11B4A53
:100CA000D2680243194BDA6004E0184AD2688243E2
:100CB000164BDA60704729B1144A12690243134B8C
:100CC0001A6104E0114A12698243104B1A6170479D
:100CD00012494039086070470F49C86470470B4992
:100CE000C87170470948406A40F0807007494862FF
:100CF000704701460020054A92680A400AB1012067
:100D000000E00020704701498872704700100240DF
:100D10000000FFF8FFFFF6FE00004242800442425E
:100D200000127A0000093D000000002010000020A1
:100D300010B50446FE48844208D10121C014FFF7D3
:100D4000ADFF0021E014FFF7A9FFC4E0B4F1804F2C
:100D500008D101210846FFF7AEFF00210120FFF76F
:100D6000AAFFB8E0F348844208D101210220FFF72E
:100D7000A2FF00210220FFF79EFFACE0EE48844274
:100D800008D101210420FFF796FF00210420FFF77E
:100D900092FFA0E0E948844208D101210820FFF732
:100DA0008AFF00210820FFF786FF94E0E448844290
:100DB00008D101211020FFF77EFF00211020FFF74E
:100DC0007AFF88E0DF48844208D101212020FFF724
:100DD00072FF00212020FFF76EFF7CE0DA4884429A
:100DE00008D101214014FFF759FF00216014FFF7DB
:100DF00055FF70E0D548844209D10121C804FFF7AE
:100E00004DFF00214FF40020FFF748FF63E0D0487A
:100E1000844209D101210805FFF740FF00214FF46A
:100E20008010FFF73BFF56E0CA48844209D10121F8
:100E30004805FFF733FF00214FF40010FFF72EFFA6
:100E400049E0C548844208D101214020FFF733FF23
:100E500000214020FFF72FFF3DE0C048844208D129
:100E600001218020FFF727FF00218020FFF723FFCB
:100E700031E0BB48844208D101218015FFF71BFFF8
:100E80000021A015FFF717FF25E0B648844209D1DD
:100E900001210804FFF702FF00214FF48030FFF723
:100EA000FDFE18E0B048844209D101214804FFF753
:100EB000F5FE00214FF40030FFF7F0FE0BE0AB48E9
:100EC000844208D101218804FFF7E8FE00214FF495
:100ED0008020FFF7E3FE10BD00220288944B984269
:100EE0000ED0994B98420BD0B0F1804F08D0914B67
:100EF000984205D0904B984202D0904B984204D132
:100F00004FF68F731A404B881A438D4B984207D087
:100F10008C4B984204D04FF6FF431A40CB881A43BB
:100F200002808B8883850B880385814B98420BD088
:100F3000854B984208D08B4B984205D08A4B9842FB
:100F400002D08A4B984201D10B7A03860123838217
:100F5000704770B5002400220023058C4FF6FE7602
:100F600035400584028C8388048B4FF68F752C40A6
:100F7000B51E2C400D882C43751E2A400D892A432E
:100F80004D882A436A4DA8420BD06F4DA84208D025
:100F9000744DA84205D0744DA84202D0734DA842AA
:100FA00013D14FF6F7752A404D892A434FF6FB754A
:100FB0002A408D882A434FF6FF652B404FF6FF5598
:100FC0002B408D892B43CD892B4383800483CD888F
:100FD0008586028470BD70B5002400220023058C34
:100FE0004FF6EF7635400584028C8388048B48F6F3
:100FF000FF752C404FF6FF452C400D884FF6FF76CD
:1010000006EA05252C434FF6DF752A400D8906EACE
:1010100005152A434D8806EA05152A43444DA84282
:1010200002D0494DA8421DD14FF67F752A404D8907
:101030004FF6FF7606EA05152A434FF6BF752A409C
:101040008D8806EA05152A434FF6FF352B404FF2EF
:10105000FF752B408D8906EA85052B43CD8906EA6D
:1010600085052B4383800483CD880587028470BD6A
:1010700070B5002400220023058C4FF6FF66354032
:101080000584028C8388848B4FF68F752C404FF635
:10109000FC752C400D882C434FF6FF552A400D89D6
:1010A0004FF6FF7606EA05252A434D8806EA052510
:1010B0002A431F4DA84202D0234DA8421DD14FF212
:1010C000FF752A404D894FF6FF7606EA05252A432B
:1010D0004FF6FF352A408D8806EA05252A434EF64D
:1010E000FF752B404DF6FF752B408D8906EA0515DF
:1010F0002B43CD8906EA05152B4383808483CD8855
:101100008587028470BD70B5002200230024058C01
:101110004EF6FF7635400584038C8488828B48F632
:10112000FF752A404FF6FF452A400D8820E0000059
:10113000002C01400004004000080040000C00406A
:10114000001000400014004000340140004C0140F9
:10115000005001400054014000180040001C0040B5
:101160000020004000400140004401400048014090
:101170004FF6FF7606EA05252A434DF6FF752B400C
:101180000D8906EA05352B434D8806EA05352B43C4
:10119000FA4DA84202D0FA4DA84208D14BF6FF758D
:1011A0002C408D894FF6FF7606EA85152C43848006
:1011B0008283CD88A0F84050038470BD828B4FF2AB
:1011C000FF331A408283828B4FF6FF7303EA0123B9
:1011D0001A4382837047F0B50C4615460022002161
:1011E0000026078C4EF6FF7C07EA0C070784828BEB
:1011F000018C4FF6FF7707EA043640F6FF473A4086
:101200004FF6FF7707EA05273A434FF6FF7707EADD
:1012100003373A43D94FB8420ED0D94FB8420BD01A
:10122000B0F1804F08D0D74FB84205D0D64FB84262
:1012300002D0D64FB84206D14DF6FF77394046F47A
:101240008057394305E047F6FF57394044F480574B
:10125000394382830184F0BD828B4FF6F3731A40C9
:101260008283828B0A4382837047F0B50C46154611
:10127000002200210026078C4FF6FF6C07EA0C07BE
:101280000784828B018C4FF6FF7707EA04264FF61E
:101290000C773A404FF6FF7707EA03172F433A439C
:1012A000B64FB8420ED0B64FB8420BD0B0F1804F17
:1012B00008D0B44FB84205D0B34FB84202D0B34FB4
:1012C000B84206D14FF6FF57394046F4807739438C
:1012D00005E04FF2FF57394044F480773943828369
:1012E0000184F0BD028B4FF2FF331A400283028B60
:1012F0004FF6FF7303EA01231A4302837047F0B5E8
:101300000C461546002200210026078C4FF6EF7C84
:1013100007EA0C070784028B018C4FF6FF7707EA78
:10132000041640F6FF473A404FF6FF7707EA0337C7
:101330003A434FF6FF7707EA05273A438F4FB84203
:101340000ED08F4FB8420BD0B0F1804F08D08D4FE8
:10135000B84205D08C4FB84202D08C4FB84206D16B
:101360004FF6DF77394046F01007394305E04FF676
:101370005F77394044F01007394302830184F0BDA0
:10138000028B4FF6F3731A400283028B0A430283E7
:101390007047F0B50C46154600220021068C4FF62A
:1013A000FE773E400684028B018C4FF60C7632406D
:1013B0007E1C06EA03162E433243704EB0420ED016
:1013C0006F4EB0420BD0B0F1804F08D06D4EB0429E
:1013D00005D06D4EB04202D06C4EB04206D14FF6F1
:1013E000FD76314044F00106314305E04FF6F576D5
:1013F000314044F00106314302830184F0BD70B5F1
:1014000005460C465D4885420ED05D4885420BD0AE
:10141000B5F1804F08D05B48854205D05A488542D7
:1014200002D05A48854200D100E000BF208850B960
:101430002389A28861882846FFF7ABFFE188284608
:10144000FFF79EFF25E0208804280AD12389A2887F
:1014500061882846FFF753FFE1882846FFF742FFDF
:1014600017E0208808280AD12389A28861882846A5
:10147000FFF7FBFEE1882846FFF7EEFE09E023892F
:10148000A28861882846FFF7A6FEE1882846FFF774
:1014900095FE70BD2DE9F04105460C46002601275A
:1014A000608808B9022600E00026A088012801D142
:1014B000022700E001272088A0B92389A28861883B
:1014C0002846FFF766FFE1882846FFF759FF238982
:1014D0003A4631462846FFF712FFE1882846FFF7D3
:1014E00001FF13E02389A28861882846FFF707FFE0
:1014F000E1882846FFF7F6FE23893A46314628461A
:10150000FFF747FFE1882846FFF73AFFBDE8F08183
:101510000A884B881A438B881A43CB881A430B8955
:101520001A434B891A438B891A43A0F84420704709
:101530004FF6FF71818000210180C18041800172DE
:1015400070470021018041808180C18001814181FB
:101550008181C1817047002101804180012181800A
:101560000021C1800181704700210180418081807C
:10157000C18001814181818170470000002C0140C0
:10158000003401400004004000080040000C00400E
:1015900021B1028842F00102028004E002884FF685
:1015A000FE731A400280704731B1B0F8442042F413
:1015B0000042A0F8442005E0B0F84420C2F30E0237
:1015C000A0F8442070471AB183890B43838102E05D
:1015D00083898B43838170478182704741EA02038C
:1015E000A0F8483070471AB183890B43838102E029
:1015F00083898B438381704701894FF6F8721140CC
:10160000018170470A46002101894FF68F73194006
:1016100011430181704730B504460D4629462046E6
:10162000FFF7F0FF208940F00700208130BD2DE951
:10163000F04104460D4616461F46602D06D13B4636
:10164000012231462046FFF75AFE05E03B460122C3
:1016500031462046FFF79DFE29462046FFF7D2FF80
:10166000208940F007002081BDE8F08130B50C46AC
:1016700000210189C9B24FF6FF7505EA032515431C
:1016800025432943018130BD2DE9F04105460E4631
:1016900017469846002443463A4631462846FFF707
:1016A000E5FF2C894FF6F870044044F007044FF62C
:1016B0008F70044044F070042C81BDE8F081F0B5D7
:1016C00004460D4616461F463B46324629462046EE
:1016D000FFF7CCFF208940F480402081F0BD0185D8
:1016E000828270470A46002101884FF68F731940A5
:1016F000114301807047F0B50C4615461E46002187
:10170000002200230189028B038C4FF6F8773940C1
:1017100021434FF6FC473A4040F201173A434FF657
:10172000DD773B404FF6FF7707EA06172F433B4331
:10173000018102830384F0BD0A460021018B4FF62C
:101740008F7319401143018370470A460021018BB2
:1017500048F6FF7319404FF6FF7303EA022319435B
:10176000018370470A460021818B4FF68F73194021
:101770001143818370470A460021818B48F6FF732D
:1017800019404FF6FF7303EA022319438183704720
:1017900021B1028842F08002028004E002884FF604
:1017A0007F731A400280704721B1828842F00402A0
:1017B000828004E082884FF6FB731A408280704773
:1017C00021B1828842F00802828004E082884FF6CC
:1017D000F7731A408280704721B1828842F001027B
:1017E000828004E082884FF6FE731A408280704740
:1017F0000A460021018B4FF6F7731940114301830C
:1018000070470A460021018B4FF2FF7319404FF6D3
:10181000FF7303EA02231943018370470A4600213C
:10182000818B4FF6F77319401143818370470A4645
:101830000021818B4FF2FF7319404FF6FF7303EACB
:1018400002231943818370470A460021018B4FF61A
:10185000FB7319401143018370470A460021018B35
:101860004FF6FF3319404FF6FF7303EA0223194383
:10187000018370470A460021818B4FF6FB731940A4
:101880001143818370470A460021818B4FF6FF3355
:1018900019404FF6FF7303EA02231943818370470F
:1018A0000A460021018B4FF67F73194011430183D3
:1018B00070470A460021018BC1F30E014FF6FF73FA
:1018C00003EA02231943018370470A460021818BF2
:1018D0004FF67F7319401143818370470A460021F8
:1018E000818BC1F30E014FF6FF7303EA0223194304
:1018F000818370470A460021018C4FF6FD73194021
:101900001143018470470A460021018C4FF6F7739A
:1019100019401143018470470A460021018C4FF69B
:10192000DF7319404FF6FF7303EA02131943018472
:1019300070470A460021018C4FF67F7319404FF61D
:10194000FF7303EA02131943018470470A4600211A
:10195000018C4FF6FF5319404FF6FF7303EA022341
:101960001943018470470A460021018C4FF2FF732E
:1019700019404FF6FF7303EA0223194301847047AD
:101980000A460021018C4DF6FF7319404FF6FF7394
:1019900003EA023319430184704730B50023012460
:1019A0008C40A3B2048C9C430484048C02FA01F59D
:1019B000ADB22C43048430BD30B5002304248C40E8
:1019C000A3B2048C9C430484048C02FA01F5ADB2EA
:1019D0002C43048430BD70B5034600200024184613
:1019E000183001258D40ACB21D8CA5431D8409B172
:1019F000082909D100EB6100056825F07005056034
:101A00000568154305600EE00D1FC5F34E0528441B
:101A1000056825F4E045056005684FF6FF7606EA9F
:101A200002263543056070BD21B1028842F00202F2
:101A3000028004E002884FF6FD731A40028070476E
:101A400021B1028842F00402028004E002884FF6CD
:101A5000FB731A400280704721B1828842F08002F5
:101A6000828004E082884FF67F731A40828070473C
:101A700002884FF6F7731A40028002880A430280F8
:101A8000704782884FF68F731A40828082880A439B
:101A90008280704702894FF6F8731A4002810289EA
:101AA0000A430281704702894FF67F731A40028110
:101AB00002890A430281704781847047818570479B
:101AC000818670470187704781877047A0F8401072
:101AD000704702884FF6FF431A40028002880A438B
:101AE000028070470146888E70470146088F704714
:101AF0000146888F70470146B1F8400070470146A3
:101B0000888C70470146088D704702460020138A72
:101B10000B400BB1012000E000207047CA43028255
:101B2000704730B50246002000230024158A05EADC
:101B30000103958905EA010413B10CB1012000E00D
:101B4000002030BDCA4302827047000010B5044631
:101B5000FB48844209D101218803FFF79FF8002147
:101B60004FF48040FFF79AF832E0F648844209D1FA
:101B700001214804FFF79FF800214FF40030FFF7E0
:101B80009AF825E0F048844209D101218804FFF742
:101B900092F800214FF48020FFF78DF818E0EB4811
:101BA000844209D10121C804FFF785F800214FF4D0
:101BB0000020FFF780F80BE0E548844208D10121BE
:101BC0000805FFF778F800214FF48010FFF773F84D
:101BD00010BD2DE9F04786B005460E460024A2460A
:101BE00000BFA1460027B08900B100BF2F462C8A54
:101BF0004CF6FF700440F08804432C82AC894EF60A
:101C0000F3100440B08831890843718908430443C4
:101C1000AC81AC8A4FF6FF400440B0890443AC82EB
:101C200001A8FEF7B4FFC648874202D1DDF810A034
:101C300001E0DDF80CA0A88900F4004040B10AEBF7
:101C4000CA0000EB0A1031684900B0FBF1F807E068
:101C50000AEBCA0000EB0A1031688900B0FBF1F80A
:101C60006420B8FBF0F004012009642101FB108915
:101C7000A88900F4004040B1322000EBC900B0FB5D
:101C8000F1F000F00700044308E0322000EB0910F7
:101C90006421B0FBF1F000F00F0004432C8106B08A
:101CA000BDE8F0874FF41651016000218180C180AA
:101CB00001810C21418100218181704710B50246CC
:101CC0000020108A4FF2FF0318400B884C882343F2
:101CD0008C882343CC8823431843108210BD0021F5
:101CE000018041808180C180704721B1828942F4A6
:101CF0000052828104E082894DF6FF731A4082818E
:101D00007047F0B50346002400260025002040F669
:101D10006A17B94200D100BF1846C1F3421401F05E
:101D20001F06012707FA06F5012C01D10C3004E04B
:101D3000022C01D1103000E014301AB107682F4393
:101D4000076002E00768AF430760F0BD1AB1838AFD
:101D50000B43838202E0838A8B4383827047028A2B
:101D60004FF6F0731A400282028A0A4302827047D9
:101D700082894FF2FF731A40828182890A438281ED
:101D8000704721B1828942F00202828104E0828997
:101D90004FF6FD731A4082817047028A4FF6DF7357
:101DA0001A400282028A0A430282704721B1028AE3
:101DB00042F48042028204E0028A4BF6FF731A402A
:101DC00002827047C1F3080282807047014688880A
:101DD000C0F308007047818941F00101818170479B
:101DE000028BD2B20283028B42EA01220283704745
:101DF000028B02F47F420283028B0A430283704704
:101E000021B1828A42F02002828204E0828A4FF667
:101E1000DF731A408282704721B1828A42F0100239
:101E2000828204E0828A4FF6EF731A408282704702
:101E300021B1828A42F00802828204E0828A4FF64F
:101E4000F7731A408282704721B1828942F40042BE
:101E5000828103E08289C2F30E028281704721B140
:101E6000828A42F40062828204E0828A4FF2FF7327
:101E70001A4082827047828A4FF6FB731A40828230
:101E8000828A0A438282704721B1828A42F002022A
:101E9000828204E0828A4FF6FD731A408282704784
:101EA00002460020B1F5007F00D100BF13880B402F
:101EB0000BB1012000E00020704701F40072B2F580
:101EC000007F00D100BFCA430280704770B5024650
:101ED000002400230025002040F66A16B14200D1FC
:101EE00000BFC1F3421501F01F03012606FA03F3F8
:101EF000012D02D19689334006E0022D02D1168AC7
:101F0000334001E0968A33400C12012606FA04F4AD
:101F10001688344013B10CB1012000E0002070BDE0
:101F200010B50022002340F66A14A14200D100BF80
:101F30000A1201249440A3B2DC43048010BD0000C7
:101F4000003801400044004000480040004C004080
:101F5000005000400CB50020019000906C480068D3
:101F600040F480306A49086000BF6948006800F4A6
:101F7000003000900198401C0190009818B9019819
:101F8000B0F5A06FF1D16248006800F4003010B1E4
:101F90000120009001E0002000900098012843D12A
:101FA0005C48006840F010005A4908600846006824
:101FB00020F0030008600846006840F00200086056
:101FC000534840685249486008464068486008469F
:101FD000406840F4806048600846406820F47C1007
:101FE00048600846406840F4E810486008460068C9
:101FF00040F08070086000BF4548006800F0007045
:102000000028F9D04248406820F003004049486069
:102010000846406840F00200486000BF3C48406805
:1020200000F00C000828F9D10CBD10B5FFF792FFA5
:1020300010BD10B53648006840F001003449086012
:1020400008464068344908403149486008460068FD
:10205000324908402E4908600846006820F4802074
:1020600008600846406820F4FE0048604FF41F00F6
:102070008860FFF7DAFF4FF000602949086010BD63
:1020800010B5002100200022214B5B6803F00C01F9
:1020900021B1042906D0082928D107E0214B224C80
:1020A000236027E01F4B204C236023E0184B5B6824
:1020B00003F47010164B5B6803F48032022303EBC9
:1020C000904022B9194B4343174C23600DE0104B4D
:1020D0005B6803F4003323B1144B4343124C236079
:1020E00003E0104B4343104C236003E00D4B0E4CB8
:1020F000236000BF00BF064B5B68C3F303130C4CA7
:10210000E15C094B1B68CB40074C236010BD00000D
:1021100000100240002002400000FFF8FFFFF6FE22
:1021200008ED00E000127A001400002000093D00D4
:102130001800002070B504462068057C94F838002B
:102140004543ED002946606B03F08EFE70BD2DE91E
:10215000F84305460E469146286890F810803446AC
:102160006F6B04FB08F084B24FF6FF7000EAC40402
:10217000274443464A4600212846009703F008FDBD
:10218000BDE8F8832DE9F0410446002594F8387045
:1021900094F83960206890F8118000BF32462946D3
:1021A0002046FFF7D4FF681CC5B2701CC6B2BD4202
:1021B00001DA4645F2DBBDE8F08110B50446204661
:1021C000FFF7E0FF204603F02CFD10BD70B504467C
:1021D0000D4684F83950206B016820468847206BF3
:1021E00041682046884770BD10B5044694F88300C6
:1021F00010B12046FFF79EFF00212046FFF7E6FFC3
:1022000010BD70B504462046FFF7BCFF94F8395066
:1022100094F838002844C5B22068407CA84204DC09
:10222000204603F0FEFC002070BD94F8830010B13E
:102230002046FFF77FFF29462046FFF7C7FF012012
:10224000F2E72DE9F84F04460E4617469A46DDF8A8
:10225000289094F838002168497C884201D0BDE874
:10226000F88F94F83A80656B05EBC60508FB0755B7
:102270000DE053463A4631462046009503F088FC6F
:102280004544781CC7B2A9F1010000F0FF09B9F17B
:10229000000FEEDC00BFE2E710B504462046FFF772
:1022A00071FF10BD38B504460D4694F83810226809
:1022B000107C2A4603F023FB009594F8382023680D
:1022C000197C204B606B03F031FB38BD38B50446F8
:1022D0000D4694F838102268107C2A4603F052FB11
:1022E000009594F838202368197C164B606B03F036
:1022F00064FB38BD38B504460D4694F838102268A2
:10230000107C2A4603F0FBFA009594F838202368E5
:10231000197C0D4B606B03F009FB38BD38B50446E2
:102320000D4694F838102268107C2A4603F02AFBE8
:10233000009594F838202368197C034B606B03F0F8
:102340003CFB38BDAD580008D95800082DE9F047CE
:1023500081460C4615461E46DDE9087808F0010066
:1023600068B1781BC2B23019C1B2484601F05FFAB9
:10237000381BC2B27019C1B2484601F058FA08F0D1
:10238000020068B1781BC2B2301BC1B2484601F0EE
:102390004EFA381BC2B2701BC1B2484601F047FA70
:1023A00008F0080068B17819C2B23019C1B24846C5
:1023B00001F03DFA3819C2B27019C1B2484601F0B5
:1023C00036FA08F0040068B17819C2B2301BC1B205
:1023D000484601F02CFA3819C2B2701BC1B2484607
:1023E00001F025FABDE8F0872DE9FF4F83B08A465A
:1023F00017461C46DDF840B00125281B45B20120D8
:1024000002900026301B46B2700046B24FF0000822
:10241000A14653464A464146CDE9007B0398FFF763
:1024200095FF1CE0002D07DBA9F1010000F0FF097A
:10243000B01C46B2A81945B208F1010000F0FF082F
:102440000298801C40B202900298284445B253463C
:102450004A464146CDE9007B0398FFF777FFC84520
:10246000E0DB07B0BDE8F08F2DE9F84307460D46E5
:1024700016461C46DDF820803019401CC0B2009082
:102480002819401CC3B2301BC2B2281BC1B2384647
:1024900001F00FFA08B9BDE8F88323463246294611
:1024A0003846CDF80080FFF79FFF00BFF3E72DE926
:1024B000F04781460C4615461E46DDE9087808F0CF
:1024C000010088B1681CC3B2781BC2B23019C1B216
:1024D000484601F09EF9601CC3B2381BC2B27019A5
:1024E000C1B2484601F095F908F0020088B1681CB5
:1024F000C3B2781BC2B2301BC1B2484601F089F9A1
:10250000601CC3B2381BC2B2701BC1B2484601F096
:1025100080F908F0080078B1681CC3B23019C1B264
:102520003A46484601F075F9601CC3B27019C1B251
:102530003A46484601F06DF908F0040078B1681C8D
:10254000C3B2301BC1B23A46484601F062F9601C82
:10255000C3B2701BC1B23A46484601F05AF9BDE811
:10256000F0872DE9FF4F83B08A4617461C46DDF8F9
:1025700040B00125281B45B2012002900026301BE7
:1025800046B2700046B24FF00008A14653464A4694
:102590004146CDE9007B0398FFF789FF1CE0002D41
:1025A00007DBA9F1010000F0FF09B01C46B2A81931
:1025B00045B208F1010000F0FF080298801C40B20B
:1025C00002900298284445B253464A464146CDE916
:1025D000007B0398FFF76BFFC845E0DB07B0BDE861
:1025E000F08F2DE9F84307460D4616461C46DDF8E8
:1025F00020803019401CC0B200902819401CC3B282
:10260000301BC2B2281BC1B2384601F052F908B9DA
:10261000BDE8F8832346324629463846CDF8008087
:10262000FFF79FFF00BFF3E72DE9F04781460C4617
:1026300015461E46DDE9087808F0010030B1781B28
:10264000C2B23019C1B2484601F0F1F808F00200F8
:1026500030B1781BC2B2301BC1B2484601F0E7F876
:1026600008F0080030B17819C2B23019C1B248463A
:1026700001F0DDF808F0040030B17819C2B2301B67
:10268000C1B2484601F0D3F8BDE8F0872DE9FF4F0D
:1026900085B01C46129DA2460AFB04F00FFA80FA90
:1026A0004FEA4A000FFA80FAAB460BFB05F00FFA2F
:1026B00080FB4FEA4B000FFA80FBA0464FF0000969
:1026C0000126301B06B2301B06B206FB05F006B22F
:1026D00006FB05F006B2274607FB04F007B2002010
:1026E0000490CDF80CB0DDF80CB00BFB04F000B298
:1026F0000390002002902EE013990798CDE9000185
:102700004A464146DDE90503FFF78EFF09F1010066
:1027100000F0FF090298504400B202900498384437
:1027200000B2049007EB0A0007B20221049801FBF3
:10273000006000280FDDA8F1010000F0FF080398F9
:10274000A0EB0B0000B203900498304400B2049058
:1027500006EB0B0006B2DDE902108842CCDA4FF03E
:102760000008A9462E4606FB05F006B20127781B95
:1027700007B2781B07B207FB04F007B207FB04F0AF
:1027800007B2002004900390CDF808A0DDF808A05F
:102790000AFB05F000B202902EE013990798CDE9EC
:1027A00000014A464146DDE90503FFF73DFF08F118
:1027B000010000F0FF080398584400B20390049809
:1027C000304400B2049006EB0B0006B202210498DC
:1027D00001FB007000280FDDA9F1010000F0FF09E6
:1027E0000298A0EB0A0000B202900498384400B2AC
:1027F000049007EB0A0007B2DDE902108842CCDD45
:1028000009B0BDE8F08F2DE9FC4780460C4615461F
:102810001E46DDE90A79E819401CC0B20090A019F3
:10282000401CC3B2E81BC2B2A01BC1B2404601F0BB
:1028300040F808B9BDE8FC8733462A4621464046A1
:10284000CDE90079FFF722FF00BFF3E72DE9F0475C
:1028500081460D4614461E46DDE9088707F0010053
:1028600048B1601CC3B2A8EB0400C2B27019C1B277
:10287000484600F0CEFF07F0020048B1601CC3B22A
:10288000A8EB0400C2B2701BC1B2484600F0C1FF01
:1028900007F0080038B1601CC3B27019C1B24246DB
:1028A000484600F0B6FF07F0040038B1601CC3B220
:1028B000701BC1B24246484600F0ABFFBDE8F0874E
:1028C0002DE9FF4F85B01C46129DA2460AFB04F07D
:1028D0000FFA80FA4FEA4A000FFA80FAAB460BFB78
:1028E00005F00FFA80FB4FEA4B000FFA80FBA04681
:1028F0004FF000090126301B06B2301B06B206FB62
:1029000005F006B206FB05F006B2274607FB04F009
:1029100007B200200490CDF80CB0DDF80CB00BFB32
:1029200004F000B20390002002902EE01399079863
:10293000CDE900014A464146DDE90503FFF786FF80
:1029400009F1010000F0FF090298504400B2029022
:102950000498384400B2049007EB0A0007B2022141
:10296000049801FB006000280FDDA8F1010000F0D1
:10297000FF080398A0EB0B0000B2039004983044CA
:1029800000B2049006EB0B0006B2DDE902108842AB
:10299000CCDA4FF00008A9462E4606FB05F006B239
:1029A0000127781B07B2781B07B207FB04F007B2B8
:1029B00007FB04F007B2002004900390CDF808A0B4
:1029C000DDF808A00AFB05F000B202902EE0139992
:1029D0000798CDE900014A464146DDE90503FFF7C6
:1029E00035FF08F1010000F0FF080398584400B2D9
:1029F00003900498304400B2049006EB0B0006B23A
:102A00000221049801FB007000280FDDA9F10100EC
:102A100000F0FF090298A0EB0A0000B202900498AF
:102A2000384400B2049007EB0A0007B2DDE9021057
:102A30008842CCDD09B0BDE8F08F2DE9FC47804627
:102A40000C4615461E46DDE90A79E819401CC0B25D
:102A50000090A019401CC3B2E81BC2B2A01BC1B2B7
:102A6000404600F026FF08B9BDE8FC8733462A46F9
:102A700021464046CDE90079FFF722FF00BFF3E78A
:102A80000146062008700148704700003C00002005
:102A90002DE9FC4107460C4615461E462B460A4AC0
:102AA0000A493846009603F05DF901A8FFF7E8FFF0
:102AB0008046074B00949DF804204146384601F0BB
:102AC00069F8BDE8FC81000067520008993F0008E2
:102AD000A139000802460A441078704702460A44A9
:102AE0001078521C4FF6FF7303EA0020137803445A
:102AF00098B2704770B504460D4600212846FFF78E
:102B0000E9FF207001212846FFF7E4FF60700221F1
:102B10002846FFF7DFFFA07003212846FFF7DAFF02
:102B2000E07004212846FFF7D5FF207105212846D3
:102B3000FFF7D0FF607106212846FFF7CBFFA07199
:102B400007212846FFF7C6FFE07108212846FFF756
:102B5000C1FF207209212846FFF7BCFF40B2607216
:102B60000A212846FFF7B6FF40B2A0720B21284683
:102B7000FFF7B0FF40B2E0720C212846FFF7AAFF32
:102B800040B220730D212846FFF7A4FF40B26073C6
:102B90000E212846FFF79EFF40B2A0730F21284662
:102BA000FFF798FF40B2E07310212846FFF792FF2D
:102BB00040B2207411212846FFF790FF6082132154
:102BC0002846FFF78BFFA08215212846FFF786FFD6
:102BD000E08270BD70B505462C46173400BF6078A2
:102BE00000B902E060780444F9E700BFA41C0021AA
:102BF0002046FFF773FF044400BF26784FF6FF70AE
:102C000000EA06266078064306B902E0A07804448C
:102C1000F3E700BF601B801C70BD01466D20405C67
:102C2000704701466E20405C7047014691F96F0085
:102C30007047014691F97000704701467120405C71
:102C4000704770B502460C46917A1568287808419D
:102C50000B461D19EBB2082B0EDB08256E1AF5B2D8
:102C60001668761C166016683678AE400643F0B2D9
:102C7000A3F10806F3B200BF0125A5406D1E284050
:102C8000937270BDF0B507460C4621463846FFF7F3
:102C9000D8FF45B20126601EC4B206FA04F046B25F
:102CA000A81B45B22846F0BD10B523B1012B05D0B5
:102CB000022B09D105E08418E0B208E04418E0B224
:102CC00005E0841AE0B202E0441AE0B200BF00BF9F
:102CD00010BD10B523B1012B05D0022B09D105E0A1
:102CE0004418E0B208E0841AE0B205E0441AE0B209
:102CF00002E08418E0B200BF00BF10BD2DE9FF5F05
:102D000080468A46934608F154045546A77994F8BC
:102D1000079000BF267AF01BC6B20396B54200DAD0
:102D200003952079029060790190A37B4FFA89F294
:102D300079B20298FFF7CDFF0290A37B4FFA89F298
:102D400079B20198FFF7B0FF0190BBF1000F0BD0F3
:102D5000207B88F88200A07B00904046DDE90213CA
:102D6000019A00F0DAFC0CE0E07A50B9607B88F858
:102D70008200A07B00904046DDE90213019A00F03A
:102D8000CCFCB54200DA07E0A81BC5B2002709F168
:102D9000010000F0FF09BDE700BF7819C7B278B2A3
:102DA000A0714FFA89F0E071BDE8FF9F70B505464C
:102DB0000E4605F1540426600020A0726820415D93
:102DC0002046FFF73EFF40B220726920415D204659
:102DD000FFF737FF40B2607295F882002073207BC6
:102DE00008B9012000E00020607370BD2DE9F34FA9
:102DF00085B0054605F1540428460699FFF7D6FF2D
:102E000095F95D606A20415D2046FFF73BFF029027
:102E10006B20415D2046FFF735FF83466C20415D06
:102E20002046FFF72FFF019094F9080000287DDD70
:102E3000A37B06EB0B0149424AB220790299FFF7C6
:102E400048FF2071A37B06EB0B0149424AB260792F
:102E50000299FFF729FF6071277994F80580B94638
:102E6000C246A07B30B101280DD0022818D003281B
:102E70003ED12BE0207A484400F0FF090AEB06001F
:102E800000F0FF0A34E0B81BC7B2781CC7B209F1E2
:102E9000010000F0FF09207A504400F0FF0A27E00B
:102EA000207A381AC7B2781CC7B209F1010000F0C5
:102EB000FF09A8EB060000F0FF0808F1010000F090
:102EC000FF080AF1010000F0FF0A11E009EB06001B
:102ED00000F0FF09207AA8EB000000F0FF0808F1DD
:102EE000010000F0FF080AF1010000F0FF0A00BF36
:102EF00000BF4B46424639462846CDF800A000F0B8
:102F0000D8FC18B9019807B0BDE8F08F0020A07177
:102F1000E07100BF6620415D2046FFF792FE0490FD
:102F20006720415D2046FFF78CFE00E01AE0039029
:102F300000BF002228460499FFF7E0FE0122284640
:102F40000399FFF7DBFE01212046FFF77AFE0028F8
:102F5000EFD194F90700B042DCDB00BF00BF207B5B
:102F600085F882000198CEE72DE9F04107460D462D
:102F7000FC6C1734FF2D18DC612D03DB7820C05B5F
:102F8000044404E0412D02DB7620C05B044400BF12
:102F9000607800B908E02078A84202D1A01CBDE802
:102FA000F08160780444F3E725E07A20C05B0444B4
:102FB000A04600BF00214046FFF790FD04440221D7
:102FC0004046FFF78BFD064608F10408AE42F1DBF0
:102FD00000BF26784FF6FF7000EA062660780643A9
:102FE00006B906E0AE4201D1E01CD8E7A07804445F
:102FF000EFE700BF00BF0020D1E72DE9F04704460E
:103000000D4616461F464FF0000958200555592019
:10301000065539462046FFF7A7FF8046B8F1000F56
:1030200005D041462046FFF7E1FE00F0FF09484683
:10303000BDE8F08770B504460D4629462046FFF7E7
:1030400093FF08B1012070BD0020FCE770B5044675
:103050000E4631462046FFF787FF05460DB9002092
:1030600070BD29462046FFF7A1FE6A20015D04F1EC
:103070005400FFF707FE84F880006B20015D04F127
:103080005400FFF7FFFD6C20015D04F15400FFF7D1
:10309000F9FDE5E75F22115470472DE9F041044640
:1030A0000D4616461F466220005D30B101280AD049
:1030B00002280ED0032818D111E02046216D884740
:1030C0003044C6B211E02046216D8847281AC5B2A7
:1030D0000BE02046216D8847301AC6B205E0204635
:1030E000216D88472844C5B200BF00BF3B46324629
:1030F00029462046FFF781FFBDE8F0812DE9F04722
:1031000006460F4690469946304601F0DFFD4FF0E7
:10311000000A00BF99F800103046726890470546D3
:103120004FF6FF718D4200D12CE009F101094FF6F5
:10313000FE708542EED02B46424639463046FFF7B8
:10314000ACFF04466220805D30B1012807D0022820
:103150000AD0032810D10AE03819C7B20CE008EBF6
:10316000040000F0FF0807E0381BC7B204E0A8EB3A
:10317000040000F0FF0800BF00BF0AEB040000F0ED
:10318000FF0AC7E700BF5046BDE8F0872DE9F041D0
:1031900004460D4616461F46FC4860603B463246D4
:1031A00029462046FFF7AAFFBDE8F0812DE9F0414E
:1031B00004460D4616461F46F54860603B463246BB
:1031C00029462046FFF79AFFBDE8F0812DE9FF4F21
:1031D00081B007460E469846DDF83CA0EC48786082
:1031E0004FF6FF7B384601F071FD0020009000BFD4
:1031F0009AF8001038467A68904704464FF6FF71F7
:103200008C4200D138E00AF1010A4FF6FE70844288
:10321000EED021463846FFF719FFC5B2B8F1000FCE
:103220000CD05B46224638460E9900F05FFB814683
:10323000A5EB0900C5B2701BC6B209E023465A4689
:1032400038460E9900F052FB8146A5EB0900C5B245
:10325000A346234631463846039AFFF71EFFB8F1CE
:10326000000F04D17019C6B2A6EB0900C6B20098CF
:103270002844C0B20090BBE700BF009805B0BDE88D
:10328000F08F2DE9FF4F81B006460F469846DDF8D6
:103290003C90BF4870604FF6FF7A304601F016FD53
:1032A0000020009000BF99F80010304672689047E7
:1032B00004464FF6FF718C4200D135E009F1010957
:1032C0004FF6FE708442EED021463046FFF7BEFE38
:1032D000C5B2B8F1000F0CD05346224630460E99C5
:1032E00000F03CFB8346A5EB0B00C5B2781BC7B2D0
:1032F00009E02346524630460E9900F02FFB8346E4
:10330000A5EB0B00C5B2A246B8F1000F01D17819A8
:10331000C7B2234639463046039AFFF7BEFE0098EF
:103320002844C0B20090BEE700BF009805B0BDE8D9
:10333000F08FC16C01B970477121095C80F87E1073
:103340007221095C80F87F1090F87D1099B390F895
:103350007D10012914D190F97E2090F973108A42D2
:1033600003DA7321095C80F87E1090F97F2090F9D0
:1033700074108A421FDD7421095C80F87F101AE006
:1033800090F96E2090F97010114490F97E209142CE
:1033900007DD6E210A5C7021095C114449B280F896
:1033A0007E1090F97F2090F970108A4203DD702121
:1033B000095C80F87F1000BFBDE700B50346002020
:1033C00083F87D001846FFF7B4FF00BD00B5034643
:1033D000012083F87D001846FFF7ABFF00BD00B564
:1033E0000346022083F87D001846FFF7A2FF00BDC8
:1033F000014600207047AFF20701016570470146A2
:1034000091F87F007047AFF20901016570470146EE
:1034100091F87E00421CD0B27047AFF20D010165F9
:103420007047024612F97E1F5078081A41B20846CA
:1034300001EBD073591050787E3A084441B2C8B2BB
:103440007047AFF221010165704770B504460D4623
:10345000E06CA84208D0E564294604F16400FFF757
:1034600049FB2046FFF765FF70BD70B506460D4667
:10347000304601F02BFC00BF297830467268904737
:1034800004464FF6FF70844200D10BE06D1C4FF6EE
:10349000FE708442F0D021463046FFF765FD0028DB
:1034A000EAD170BD00BF0120FBE770B504460D46B0
:1034B0003748606029462046FFF7D7FF70BD2DE9E9
:1034C000F04104460F4600215C200155204601F0E2
:1034D000FDFB0026B04600BF397820466268904761
:1034E00005464FF6FF70854200D10EE07F1C4FF677
:1034F000FE708542F0D029462046FFF7A7FD00F078
:10350000FF0806EB0800C6B2E6E700BF5C20005DDE
:1035100050B1A6EB0800C6B25C20005D3044C6B2D4
:1035200094F880003044C6B23046BDE8F0812DE901
:10353000F0470446884615461E46DDF82090414671
:103540002046FFF711FD07460FB9BDE8F087394661
:103550002046FFF72BFC5C20005D28706A20015D8F
:1035600004F15400FFF78EFB30706B20015D04F115
:103570005400FFF787FB6C20015D04F15400FFF756
:1035800081FB89F8000000BFDFE70000D54C000890
:10359000E74C00087FB505460C4601A8009021784D
:1035A00002AB03AA2846FFF7C2FF9DF9080004B04A
:1035B00070BD2DE9FF4107460D46002600BF297862
:1035C00038467A68904704466D1C4FF6FE70844278
:1035D000F5D0401C844203D1304604B0BDE8F081F0
:1035E00001A802AB03AA214600903846FFF79FFFCF
:1035F0009DF808004042C6B200BF00BF2978384697
:103600007A68904704466D1C4FF6FE708442F5D0F0
:10361000401C844200D10CE001A802AB03AA214661
:1036200000903846FFF783FF9DF804003044C6B28F
:10363000E3E700BF202C08D09DF80C003044C6B250
:103640009DF808003044C6B203E09DF80400304401
:10365000C6B23046C1E770B504460D460E486060FC
:1036600029462046FFF72BFF70BD70B504460D4676
:103670000948606029462046FFF79BFF70BD70B582
:1036800004460D460548606029462046FFF717FFAF
:1036900070BD622211547047D54C0008E74C0008F9
:1036A00070B505460E46144629780A46307810440F
:1036B000C2B2914206DD994203DA1A46501EC2B2E6
:1036C00000E02146994201DB002070BDA24201DCEE
:1036D0000020FAE7A14200DA21469A4200DD1A46AC
:1036E0002970501AC2B232700120EEE72DE9F8437A
:1036F00004460E4615461F46DDF8208094F83C002F
:10370000281AC5B2CDF800803B462A4631462046ED
:10371000D4F82CC0E047BDE8F8837FB582B00446FA
:103720000A9D94F87C00002863D09DF814000028BE
:103730005FD09DF8140001281CDD022D0CD19DF8EE
:103740000C009DF81410401AC0B203909DF80C00B4
:10375000401CC0B203900DE0032D0BD19DF810006A
:103760009DF81410401AC0B204909DF81000401C3F
:10377000C0B2049005F00105C5B994F843009DF866
:103780001010884201DD06B070BD94F844009DF829
:103790001010884200DCF6E794F8423094F841209B
:1037A00005A903A8FFF77CFFC0B9ECE794F8410036
:1037B0009DF80C10884200DDE5E794F842009DF882
:1037C0000C10884200DCDEE794F8443094F8432083
:1037D00005A904A8FFF764FF00B9D4E70095206BA2
:1037E0009DF814309DF810209DF80C108668204636
:1037F000B04700BFC7E7F8B504460D4616461F465A
:1038000000203B463246294600902046FFF785FFC0
:10381000F8BDF8B504460D4616461F4601203B4646
:103820003246294600902046FFF777FFF8BDF8B5ED
:1038300004460D46164694F84300B04200DDF8BD3C
:1038400094F84400B04200DCF9E794F84100A84243
:1038500000DDF4E794F84200A84200DCEFE7002026
:1038600001233246294600902046FFF756FF00BF4D
:10387000E5E780F88210032902DB012280F882202C
:10388000704710B504468A4209DAA34201DD0120DF
:1038900010BD9A4201DD0120FAE70020F8E7A342BB
:1038A00005DD9A4201DD0120F2E70020F0E700206B
:1038B000EEE72DE9F04104460D4616461F46DDF8B9
:1038C000188094F8441094F8430043463246FFF7BA
:1038D000D8FF10B90020BDE8F08194F8421094F8A8
:1038E00041003B462A46FFF7CCFFF4E72DE9F041C3
:1038F000844616461F4611B90020BDE8F0810C88A9
:10390000601E84B2002207E0486830F81200B0421E
:1039100000D103E0501C82B2A242F5DB00BFA242FC
:1039200001DB0020E9E7501CD1F8088038F810507E
:10393000886830F8123007E0C86830F81300B842E1
:1039400000D103E0581C83B2AB42F5DB00BFAB42B1
:1039500001DB0020D1E70869C05CCEE770B5054601
:103960001446002209B9002070BD00BF31F81200D2
:103970004FF6FF76B04200D10FE031F81200A042BE
:1039800008D1501C31F81000984203D1901C11F856
:103990001000E9E7D01C82B2E8E700BF0020E3E7AF
:1039A0002DE9F04704468946DDF82080114601F0F4
:1039B0000701012606FA01FA0AF0FF060027BC46B5
:1039C00094F882A0BAF1010F00DC374694F882A087
:1039D000BAF1010F00D0B446154625F00705D4F81A
:1039E00000A09AF810A00AFB05FA1FFA8AF5606B8E
:1039F00028444844B8F1000F14D100BF90F800A04B
:103A00004AEA070A80F800A090F800A08AEA0C0AA7
:103A100080F800A0401CA3F1010A0AF0FF03002B6C
:103A2000ECD132E000BF90F800A04AEA070A80F823
:103A300000A090F800A08AEA0C0A80F800A001F12A
:103A4000010A0AF0FF0101F00701A3F1010A0AF0DF
:103A5000FF0381B994F83AA0504494F882A0BAF1D7
:103A6000010F00DC012794F882A0BAF1010F0AD0FF
:103A70004FF0010C07E04FEA476A4FEA1A674FEA36
:103A80004C6A4FEA1A6C002BCDD1BDE8F0872DE9C6
:103A9000F04304460D46DDF81C80D4F8009099F8F8
:103AA00010C02F4607F0070780213941164606FB54
:103AB0000CF91FFA89F606EBE5091FFA89F6606B27
:103AC0003044B8F1000F21D100BF94F88290B9F1D1
:103AD000010F05DC90F8009049EA010980F8009098
:103AE00094F88290B9F1010F05D090F8009089EA1E
:103AF000010980F80090491009B98021401CA3F108
:103B0000010909F0FF03002BDFD11DE000BF94F88D
:103B10008290B9F1010F05DC90F8009049EA0109A3
:103B200080F8009094F88290B9F1010F05D090F8D8
:103B3000009089EA010980F800906044A3F101092E
:103B400009F0FF03002BE2D1BDE8F08310B5044675
:103B5000002030346075E075FF20A075207654F8A1
:103B6000300941682046884710BD2DE9F0410446E0
:103B70000D4616461F46DDF8188030346575E6752B
:103B8000A77584F8188054F83009416820468847A2
:103B9000BDE8F0812DE9F04104460D4616461F466A
:103BA000DDF818800020E064E762656384F838601F
:103BB00084F8390000215F200155002084F881003D
:103BC000012084F8820084F88300C4F83080206BE0
:103BD0000168204688472046FFF7B8FF2046FFF7D8
:103BE0000AFC002162200155BDE8F08170B5044651
:103BF0000D462563206B016820468847206B41688D
:103C00002046884770BD0FB438B5044606A800901A
:103C10002046009A059901F011FA0020009038BC66
:103C20005DF814FB10B5026890F83810CB06190E39
:103C300080F83B10117C202900DB1F21CB06190ED8
:103C4000383081704178CB06190E017101784378C4
:103C500038380B44547CA34204DD537C90F839403F
:103C60001B1BD9B2CB06190E10F83C3F43704378AA
:103C7000837083780B448370F023C3703C38938A3D
:103C8000F02B02DC137D80F83F30937D80F84030CC
:103C900010BD38B504464534E07800906378A278CA
:103CA00014F845192046FFF704FE18B9002084F8DF
:103CB0007C002AE0012084F87C0094F8410094F80C
:103CC0004510884203DA94F8450084F8410094F8DE
:103CD000420094F84610884203DD94F8460084F8C8
:103CE000420094F8430094F84710884203DA94F8AD
:103CF000470084F8430094F8440094F84810884240
:103D000003DD94F8480084F8440038BD10B504463B
:103D10002046FFF787FF10BD10B5044600203D3454
:103D20002071A07860712078A0716078E0713D3CCE
:103D30002046FFF7AEFF10BD10B504462046FFF742
:103D400071FF2068007D84F840002068807D84F841
:103D50003F0010BD10B5044614F83D0F2071607887
:103D600060710020A071E078E0713D3C2046FFF7D3
:103D700090FF10BD10B504462046FFF753FF10BD5D
:103D800010B5044600203E34E070607820710020B9
:103D90006071A07814F83E19884205DB3E34A078A3
:103DA0002178401A60713E3C3D34E0782178401A19
:103DB000E0713D3C2046FFF76CFF10BD10B5044696
:103DC0002046FFF72FFF2068007D84F84000206820
:103DD000807D84F83F0010BD10B5044600203E34BD
:103DE000E070607814F83E19884205DB3E34607854
:103DF0002178401AE0703E3C3D34A0782178401A8A
:103E000060710020A071E078E0713D3C2046FFF732
:103E100040FF10BD2DE9F84304460D4616461F46E7
:103E2000DDF820803B46324629462046CDF800800A
:103E3000FFF75CFCBDE8F8832DE9F84305460E4624
:103E400091461F46DDF8208095F83F40A01BC4B284
:103E500008F0010010B9E01BC4B201E0601EC4B25A
:103E60003B464A4621462846CDF80080FFF73EFCF7
:103E7000BDE8F8832DE9F84F06460F46904699466F
:103E80000A9DBA4696F84040A4EB0800C4B2601EF2
:103E9000C4B2681CC5B2022D05D1A4EB0900C4B29E
:103EA000601CC4B200254B46524621463046009560
:103EB000FFF71CFCBDE8F88F2DE9F84F0646894650
:103EC00092461F46DDF8288096F84050A5EB0A0080
:103ED000C5B296F83F40A4EB0900C4B2B8F1000F98
:103EE00004D1681EC5B2E01BC4B206E0B8F1010FF0
:103EF00003D1601EC4B2E81BC5B23B462A46214628
:103F00003046CDF80080FFF7F1FBBDE8F88F2DE9D2
:103F1000F84F05460E4617469846DDF82890BA46F3
:103F200095F83F40A01BC4B2B9F1000F09D1601E43
:103F3000C4B2A4EB0800C4B2601CC4B24FF00109C3
:103F400003E0601EC4B24FF00009434622465146CA
:103F50002846CDF80090FFF7C9FBBDE8F88FF8B50B
:103F600007460C4615461E462B46074A0749384663
:103F7000009601F0F7FE064B0122064938460094F0
:103F8000FFF708FEF8BD00003B5100080D5D00087A
:103F9000A1390008280000202DE9F0478046894615
:103FA00015461E46A9F10900072866D2DFE800F091
:103FB00004091165651C2D003349404601F0B2FD2E
:103FC0005EE0404601F0B4FD3049404601F077F82C
:103FD00056E025B92E49404601F071F803E02D491D
:103FE000404601F06CF84BE0404601F015F8212105
:103FF000404600F0DDFF802040EA6501404600F0C9
:10400000D7FF404601F011F83AE0404601F004F8CD
:104010007479E006040E98F822002044C4B22021EE
:10402000404600F0C5FF44F08001404600F0C0FF6C
:10403000B07940F04001404600F0BAFFD6F800A049
:104040003779F806070E00BF3819542805D9542CC3
:1040500000D30DE05427381BC7B2524639464046BC
:1040600000F0CDFFE019C4B2681EC5B2002DEBDC34
:1040700000BF404600F0D9FF02E00020BDE8F08715
:1040800000BF0120FAE70000D45F0008B05F00081D
:10409000C15F0008C85F000870B504460D460023E4
:1040A0002A46202120462669B04770BD2DE9F041FF
:1040B00004460D46164633462A46172120462769F0
:1040C000B847BDE8F08113B5044601AA0121204696
:1040D000FFF7ECFF1CBD70B5044600231A461821FB
:1040E00020462569A84770BD70B5044600231A46CE
:1040F000192120462569A84770BD10B50446182926
:104100000DD004DC142908D017290AD104E019299C
:1041100006D0202905D101E000BF00BF00BF00BFCD
:1041200000BF00BF012010BD2DE9F84F04460F4627
:10413000154698462068007B00F0010BCBF101008A
:104140000090182F5BD004DC142F43D0172F75D1AB
:1041500004E0192F62D0202F70D14AE0464636E0A5
:1041600096F800A0761C681EC5B24FF000092BE03F
:104170000AF0800028B101224121204601F0B4FD5F
:1041800004E000224121204601F0AEFD4FEA4A60E2
:104190004FEA106A40212046009A01F0A5FD2068F0
:1041A00082792C21204601F09FFD5A46402120466D
:1041B00001F09AFD2068C2792C21204601F094FD7F
:1041C00009F1010000F0FF09B9F1080FD0DB002D63
:1041D000C6DC36E0206842784921204601F084FDA3
:1041E0002068007B00F001024021204601F07CFDA8
:1041F00027E02A464A21204601F076FD21E020688A
:1042000002784921204601F06FFD20688278002362
:104210002C212046D4F814C0E04712E02068C27870
:1042200000232C212046D4F814C0E04720684278AF
:104230004921204601F058FD03E0FFE70020BDE8DA
:10424000F88F00BF0120FAE72DE9F04704468846C1
:1042500015469946B8F1180F4ED006DCB8F1140F88
:1042600038D0B8F1170F65D106E0B8F1190F52D068
:10427000B8F1200F5ED139E04F4628E097F800A052
:104280007F1C681EC5B2402609E00AF001023146D3
:10429000204601F029FD4FEA6A0A701CC6B2472E7B
:1042A000F3DD2068827B2C21204601F01DFD0122D8
:1042B0004821204601F018FD2068C27B2C212046B1
:1042C00001F012FD00224821204601F00DFD002DD5
:1042D000D4DC32E0206842784921204601F004FD18
:1042E00000224821204601F0FFFC26E02A464A2110
:1042F000204601F0F9FC20E02068027849212046A0
:1043000001F0F2FC2068827800232C212046D4F8AA
:1043100014C0E04711E02068C27800232C21204619
:10432000D4F814C0E047206842784921204601F0C3
:10433000DBFC02E00020BDE8F08700BF0120FAE7C7
:104340002DE9F0470446884615469946B8F1180FFE
:104350004ED006DCB8F1140F38D0B8F1170F65D184
:1043600006E0B8F1190F52D0B8F1200F5ED139E054
:104370004F4628E097F800A07F1C681EC5B2402673
:1043800009E00AF001023146204601F0ADFC4FEA97
:104390006A0A701CC6B2472EF3DD2068827B2C218E
:1043A000204601F0A1FC00224821204601F09CFC9F
:1043B0002068C27B2C21204601F096FC0122482176
:1043C000204601F091FC002DD4DC32E020684278D8
:1043D0004921204601F088FC01224821204601F0B5
:1043E00083FC26E02A464A21204601F07DFC20E09D
:1043F000206802784921204601F076FC2068827806
:1044000000232C212046D4F814C0E04711E0206896
:10441000C27800232C212046D4F814C0E04720683D
:1044200042784921204601F05FFC02E00020BDE80F
:10443000F08700BF0120FAE72DE9F84F04468846CF
:10444000154699462068007B00F0010BCBF1010076
:104450000090B8F1180F60D006DCB8F1140F4AD004
:10446000B8F1170F78D106E0B8F1190F64D0B8F1A0
:10447000200F71D14EE04E463AE03778F748007889
:1044800008B147F48077761C681EC5B24FF0000A69
:104490002BE007F4807028B101224121204601F071
:1044A00023FC04E000224121204601F01DFC4FF6D0
:1044B000FF7000EA470740212046009A01F014FCF3
:1044C000206882792C21204601F00EFC5A464021BA
:1044D000204601F009FC2068C2792C21204601F019
:1044E00003FC0AF1010000F0FF0ABAF1090FD0DB6A
:1044F000002DC2DC33E0206842784921204601F0DB
:10450000F3FB2068007B00F001024021204601F00F
:10451000EBFB24E0D148057021E0206802784921B6
:10452000204601F0E1FB2068827800232C21204600
:10453000D4F814C0E04712E02068C27800232C2190
:104540002046D4F814C0E04720684278492120462C
:1045500001F0CAFB03E0FFE70020BDE8F88F00BFD1
:104560000120FAE770B505460C4604F00102492126
:10457000284601F0B9FB641004F001024E212846E0
:1045800001F0B2FB641004F001024F21284601F053
:10459000ABFB70BD2DE9F0470446884615469946A9
:1045A000B8F1180F4ED006DCB8F1140F38D0B8F1BE
:1045B000170F61D106E0B8F1190F50D0B8F1200FF4
:1045C0005AD139E04F4628E097F800A07F1C681EBA
:1045D000C5B2402609E00AF001023146204601F04A
:1045E00083FB4FEA6A0A701CC6B2472EF3DD2068CF
:1045F000827B2C21204601F077FB012248212046B6
:1046000001F072FB2068C27B2C21204601F06CFB7C
:1046100000224821204601F067FB002DD4DC2EE06B
:10462000206842784921204601F05EFB00224821A3
:10463000204601F059FB22E02A464A21204601F09B
:1046400053FB1CE029462046FFF78CFF2068827848
:1046500000232C212046D4F814C0E0470FE0206846
:10466000C27800232C212046D4F814C0E047294604
:104670002046FFF777FF02E00020BDE8F08700BF8B
:104680000120FAE72DE9F047044688461546994689
:10469000B8F1180F5DD006DCB8F1140F3FD0B8F1B7
:1046A000170F5ED106E0B8F1190F59D0B8F1200FFD
:1046B00057D148E04F462FE097F800A07F1C681EB6
:1046C000C5B2402609E00AF001023146204601F059
:1046D0000BFB4FEA6A0A701CC6B2472EF3DD206856
:1046E000827B2C21204601F0FFFA01225C480178F0
:1046F000204601F0F9FAC8222C21204601F0F4FAF4
:104700002068C27B2C21204601F0EEFA002254489A
:104710000178204601F0E8FA002DCDDC24E0206885
:1047200042784921204601F0DFFA00224821204644
:1047300001F0DAFA00224921204601F0D5FA48209A
:104740004749087010E02A464A21204601F0CCFA79
:104750000AE04820424908700DB14920087003E082
:1047600002E00020BDE8F08700BF0120FAE710B5A5
:1047700004462068427B2D21204601F0B5FA10BD89
:1047800010B5044601224C21204601F0ADFA012269
:104790004D21204601F0A8FA2046FFF7E8FF10BDA2
:1047A00010B5044601224C21204601F09DFA204616
:1047B000FFF7DDFF10BD10B5044600224C21204656
:1047C00001F092FA10BD10B5044601224D21204699
:1047D00001F08AFA10BD10B5044600224D21204692
:1047E00001F082FA10BD10B5044694F8250040B1DE
:1047F0002046FFF7E8FF2046FFF7B9FF2046FFF706
:10480000CFFF2046FFF7DFFF2046FFF7E4FF2046FB
:10481000FFF7ADFF2046FFF7CEFF012084F825000B
:1048200010BD10B504462046FFF7D5FF2046FFF720
:104830009EFF2046FFF7B4FF2046FFF7C4FF204647
:10484000FFF795FF002084F8250010BD70B50546E0
:104850000C463CB12846FFF7B6FF06E030000020CA
:10486000310000202846FFF7B6FF2846FFF77FFFFC
:104870002846FFF795FF2846FFF79DFF70BD10B54E
:1048800004462046FFF79FFF2046FFF770FF2046B3
:10489000FFF786FF2046FFF796FF2046FFF767FFEA
:1048A0002046FFF788FF10BD70B505460C4604F0A2
:1048B00080012846FFF7CAFF04F040012846FFF7B1
:1048C000C5FF04F020012846FFF7C0FF04F01001E7
:1048D0002846FFF7BBFF04F008012846FFF7B6FFA4
:1048E00004F004012846FFF7B1FF04F00201284656
:1048F000FFF7ACFF04F001012846FFF7A7FF2846A9
:10490000FFF7BDFF70BD2DE9F04106460F46144686
:104910009846182F1BD004DC142F13D0172F23D147
:1049200004E0192F1CD0202F1ED10FE0454606E0D1
:1049300029783046FFF7B8FF6D1C601EC4B2002C0A
:10494000F6DC14E03046FFF71BFF10E00FE03046C6
:10495000FFF749FF96F824103046FFF7A5FF06E061
:104960003046FFF75EFF02E00020BDE8F08100BFA7
:104970000120FAE7C16170472DE9F04104460D4678
:10498000D4F81C8098F80060D4F81C8098F801C016
:10499000D4F81C8098F80270D4F81C8098F8038032
:1049A00008FB07F808F0FF07AE4229DC654527DC65
:1049B0002946A1EB06081FFA88F101FB07F81FFA48
:1049C00088F101EB03081FFA88F14FF6FF7808EA37
:1049D000C10101F104081FFA88F100200DE0D4F8AC
:1049E0001C8018F8018002F8008001F101081FFA0C
:1049F00088F100F1010808F0FF000828EFDB0BE068
:104A0000002007E04FF0000802F8008000F10108E4
:104A100008F0FF000828F5DB94F82380B8F1000FB8
:104A20000DD0002009E012F8008088F0FF0802F89D
:104A3000008000F1010808F0FF000828F3DBBDE862
:104A4000F0812DE9FE4F05460E4614469846E8696A
:104A500090F80290E86990F803A009EB060000F0D6
:104A6000FF090AEB040000F0FF0A4FF0000B00BF43
:104A7000374600BF5B4601AA41462846FFF77CFF48
:104A800001A80123224639460090284601F080F80B
:104A90000BF1010000F0FF0B781CC7B24F45E9DBBA
:104AA000601CC4B25445E3DBBDE8FE8F01460846F6
:104AB00040EA001290B240F60F72104040EA8000C7
:104AC00043F23332104040EA400045F25552104064
:104AD00040EA40007047042200BF037801F8013B20
:104AE00010F8013B01F8013B531EDAB2002AF4DC56
:104AF00070472DE9F04788B081460E461746984624
:104B0000DDF840A0534606AA41464846FFF734FF69
:104B100000240BE006A9085DFFF7C8FF0546281230
:104B200004A9085502A90D55601CC4B2082CF1DB7C
:104B300006A902A8FFF7CFFF06A801233A4631468F
:104B40000090484601F024F806A903A8FFF7C3FF28
:104B500006A80090701CC1B201233A46484601F0F5
:104B600017F806A904A8FFF7B6FF06A80090781C5E
:104B7000C2B201233146484601F00AF806A905A849
:104B8000FFF7A9FF06A80090781CC2B2701CC1B242
:104B90000123484600F0FCFF08B0BDE8F0872DE98E
:104BA000F84F05460E4614469B46E8698778E86943
:104BB00090F803807806070EB819C7B24FEA48602C
:104BC0004FEA106808EB040000F0FF084FF0000AFD
:104BD00000BFB14600BF5B46224649462846CDF895
:104BE00000A0FFF786FF0AF1010000F0FF0A09F1BB
:104BF000020000F0FF09B945EDDBA01CC4B244453A
:104C0000E7DBBDE8F88F2DE9F04788B0804689469C
:104C100016461F46DDF840A0534606AA39464046D0
:104C2000FFF7AAFE00240BE006A9085DFFF73EFF90
:104C30000546281204A9085502A90D55601CC4B2E6
:104C4000082CF1DB02A80123324649460090404679
:104C500000F09EFF04A80090701CC2B201234946D8
:104C6000404600F095FF08B0BDE8F0872DE9F84F09
:104C700005460E4614469B46E86990F80290E8699E
:104C8000C77809EB060000F0FF097806070E38190F
:104C9000C7B24FF0000A00BFB04600BF5B462246D5
:104CA00041462846CDF800A0FFF7ADFF0AF101000C
:104CB00000F0FF0A08F1010000F0FF08C845EDDB35
:104CC000A01CC4B2BC42E7DBBDE8F88F002180F82D
:104CD00026107047024609B10A2902D14FF6FF702B
:104CE00070470846FCE7024609B10A2902D14FF68F
:104CF000FF70704792F8260068BBFC2905DB052091
:104D000082F8260001F0010121E0F82905DB0420EA
:104D100082F8260001F0030119E0F02905DB0320E9
:104D200082F8260001F0070111E0E02905DB0220EE
:104D300082F8260001F00F0109E0C02905DB0120FF
:104D400082F8260001F01F0101E00846D1E7118436
:104D50004FF6FE70CDE720329079401E907110889A
:104D60004FF6FF7303EA8010108001F03F011088B6
:104D7000084310809079203A08B1581EB9E7108C8A
:104D8000B7E72DE9F04705460F4691461E464FF01E
:104D90000008E86990F802A02846FFF797FF00BFD7
:104DA000317828466A68904704464FF6FF718C4276
:104DB00000D112E0761C4FF6FE708442F0D0E3B2D0
:104DC0004A4639462846FFF73CFE07EB0A00C7B2C1
:104DD00008F1010000F0FF08E2E700BF4046BDE82F
:104DE000F0872DE9F04104460D4616461F46AFF206
:104DF0001B1060603B46324629462046FFF7C1FF44
:104E0000BDE8F0812DE9F04104460D4616461F46E7
:104E1000AFF22D1060603B46324629462046FFF730
:104E2000B0FFBDE8F0812DE9F04705460F469246F8
:104E30001E464FF00008E86990F802904FEA49607A
:104E40004FEA10692846FFF741FF00BF3178284636
:104E50006A68904704464FF6FF718C4200D112E019
:104E6000761C4FF6FE708442F0D0E3B252463946CB
:104E70002846FFF794FE07EB0900C7B208F10100CE
:104E800000F0FF08E2E700BF4046BDE8F0872DE9EB
:104E9000F04104460D4616461F46AFF2C71060604B
:104EA0003B46324629462046FFF7BDFFBDE8F0816C
:104EB0002DE9F04104460D4616461F46AFF2D910C3
:104EC00060603B46324629462046FFF7ACFFBDE80E
:104ED000F0812DE9F04705460F4691461E464FF0FA
:104EE0000008E86990F802A02846FFF7EFFE00BF2F
:104EF000317828466A68904704464FF6FF718C4225
:104F000000D112E0761C4FF6FE708442F0D0E3B27E
:104F10004A4639462846FFF7A9FE07EB0A00C7B202
:104F200008F1010000F0FF08E2E700BF4046BDE8DD
:104F3000F0872DE9F04104460D4616461F46AFF2B4
:104F40006B2060603B46324629462046FFF7C1FF92
:104F5000BDE8F0812DE9F04104460D4616461F4696
:104F6000AFF27D2060603B46324629462046FFF77F
:104F7000B0FFBDE8F081F0B507460D460026384683
:104F8000FFF7A4FE00BF29783846FFF7ACFE0446C1
:104F90004FF6FF70844200D107E06D1C4FF6FE70A3
:104FA0008442F0D0701CC6B2EDE700BF3046F0BDC1
:104FB00070B504460D4600232A4615212046E668B2
:104FC000B04770BD70B504460D4600232A46162131
:104FD0002046E668B04770BD2DE9F04105460C4615
:104FE000164607E00023324616212846EF68B847E8
:104FF000601EC4B2002CF5DC0120BDE8F0812DE973
:10500000F04104460D46164633462A4617212046EF
:10501000E768B847BDE8F08170B5044600231A463A
:1050200018212046E568A84770BD70B504460023E6
:105030001A4619212046E568A84770BD37B582B0E9
:1050400005460C462846FFF7E7FF21E0049810F8D4
:10505000041B0490C8B201902078612804D0632812
:1050600008D0642812D10BE09DF804102846FFF701
:10507000A9FF0BE09DF804102846FFF799FF05E013
:1050800001AA01212846FFF7BAFF00BF00BF641C38
:1050900020780028DAD12846FFF7C7FF05B030BDD9
:1050A0000FB438B5044606A800902046009A05992A
:1050B000FFF7C4FF0020009038BC5DF814FBF8B582
:1050C00005460C4600BF2678641C182E21D006DC4D
:1050D000152E09D0162E08D0172E2CD110E0192E1F
:1050E00018D0FE2E27D11CE000BF207800900023AE
:1050F0009DF8002031462846EF68B847641C1BE045
:10510000207800906A4601212846FFF778FF641C4A
:1051100012E000BF00231A4631462846EF68B84720
:105120000AE0207800909DF800202921284600F010
:10513000DBFD641C00E0F8BDC5E72DE9F041044645
:105140000D4616461F46A5F1140006281AD2DFE8C0
:1051500000F00E03080D0F1031462046FEF7B3FF96
:1051600012E031462046FEF7AEFF0DE000BF00BF63
:1051700000BF3B46324629462046D4F810C0E047DF
:10518000BDE8F0810020FBE700BF0120F8E72DE932
:10519000F04104460D4616461F46A5F114000628A8
:1051A00026D2DFE800F01A030C151B1C0121204653
:1051B000FEF772FF31462046FEF785FF1AE0012117
:1051C0002046FEF769FF31462046FEF77CFF11E0DE
:1051D00000212046FEF760FF00BF00BF00BF3B4636
:1051E000324629462046D4F810C0E047BDE8F08199
:1051F0000020FBE700BF0120F8E72DE9F04104465D
:105200000D4616461F46A5F11400062826D2DFE8F3
:1052100000F01A030C151B1C01212046FEF73CFF71
:1052200031462046FEF74FFF1AE000212046FEF7E8
:1052300033FF31462046FEF746FF11E000212046AD
:10524000FEF72AFF00BF00BF00BF3B46324629469B
:105250002046D4F810C0E047BDE8F0810020FBE70D
:1052600000BF0120F8E72DE9F04104460D4616463F
:105270001F46A5F11400062826D2DFE800F01A0325
:105280000C151B1C00212046FEF706FF3146204668
:10529000FEF719FF1AE000212046FEF7FDFE314619
:1052A0002046FEF710FF11E001212046FEF7F4FE34
:1052B00000BF00BF00BF3B46324629462046D4F817
:1052C00010C0E047BDE8F0810020FBE700BF0120EF
:1052D000F8E72DE9F04104460D4616461F46A5F1B4
:1052E0001400062826D2DFE800F01A030C151B1C58
:1052F00000212046FEF7D0FE31462046FEF7E3FEB1
:105300001AE001212046FEF7C7FE31462046FEF78F
:10531000DAFE11E001212046FEF7BEFE00BF00BF0D
:1053200000BF3B46324629462046D4F810C0E0472D
:10533000BDE8F0810020FBE700BF0120F8E72DE980
:10534000F05F8046894614469A46A9F11400062863
:105350007ED2DFE800F0720321307374F8214046FA
:10536000FEF7B1FE01222C21404600F0BDFC04F006
:10537000F0014046FEF7A7FE01222C21404600F036
:10538000B3FC2007010E4046FEF79DFE01222C21B2
:10539000404600F0A9FC5DE0F8214046FEF793FE90
:1053A00004F0F0014046FEF78EFE2007010E404655
:1053B000FEF789FE4EE0FA214046FEF784FE012208
:1053C0002C21404600F090FC55461CE04FF0080BA5
:1053D000FE4F00BF15F8016B06F0F00007F8010B57
:1053E0003007060E07F8016BABF1010000F0FF0B70
:1053F000BBF1000FEEDCA4F10800C4B2F34A1021A7
:105400004046FEF753FE082CE0DA0DE02E7806F059
:10541000F0014046FEF757FE3007010E4046FEF70A
:1054200052FE6D1C601EC4B2002CEFDC01222C2148
:10543000404600F059FC0DE00AE000BF00BF5346B3
:10544000224649464046D8F810C0E047BDE8F09FE4
:105450000020FBE700BF0120F8E72DE9F0410446FA
:105460000D4616462046FEF736FE40212046FEF742
:105470002AFE33462A46172120462769B847204688
:10548000FEF732FEBDE8F0812DE9F04104460F46FB
:1054900015469846A7F11400062839D2DFE800F037
:1054A00026030413363700BF2046FEF714FE002102
:1054B0002046FEF708FE29462046FEF704FE204659
:1054C000FEF712FE26E0464608E032461821204646
:1054D000FFF7C3FFA5F11800C5B21836182DF4DC8C
:1054E000324629462046FFF7B8FF13E094F824001F
:1054F000FF2802D1782084F8240043462A46394602
:105500002046D4F810C0E047BDE8F08100BF01E0BC
:105510000020F9E700BF0120F6E72DE9F04104463D
:105520000F4615469846A7F11400062858D2DFE822
:1055300000F03903181D494DA548007810B12046E8
:10554000FEF7D2FD2046FEF7C6FD00212046FEF7FD
:10555000BAFD29462046FEF7B6FD01209C49087099
:1055600040E029462046FEF7AEFD3BE09848007833
:1055700010B12046FEF7B8FD464608E03246182135
:105580002046FFF76AFFA5F11800C5B21836182D9E
:10559000F4DC324629462046FFF75FFF00208C49A5
:1055A00008701FE094F82400FF2802D1782084F8C6
:1055B000240043462A4639462046D4F810C0E04726
:1055C000BDE8F0810020824908700BE08048007837
:1055D00010B12046FEF788FD00207D49087001E0EB
:1055E0000020EDE700BF0120EAE72DE9F041044685
:1055F0000F4615469846A7F11400062847D2DFE863
:1056000000F03403122144452046FEF764FD0021DA
:105610002046FEF758FD29462046FEF754FD204659
:10562000FEF762FD35E02046FEF755FD402120469D
:10563000FEF749FD29462046FEF745FD2046FEF7C8
:1056400053FD26E0464608E0324618212046FFF783
:1056500004FFA5F11800C5B21836182DF4DC324647
:1056600029462046FFF7F9FE13E094F82400FF28AE
:1056700002D1782084F8240043462A463946204641
:10568000D4F810C0E047BDE8F08100BF01E0002081
:10569000F9E700BF0120F6E72DE9F04104460F4687
:1056A00015469846A7F11400062856D2DFE800F008
:1056B0003A0314194A4E4748007810B12046FEF7C5
:1056C00013FD2046FEF707FD29462046FEF7FBFCAA
:1056D00001204049087042E029462046FEF7F3FCCD
:1056E0003DE0464614E03346182217212046D4F800
:1056F00010C0E047A5F11800C5B218362046FEF7E5
:10570000F3FC2046FEF7E7FC08212046FEF7DBFC11
:10571000182DE8DC33462A4617212046D4F810C05D
:10572000E0471CE094F82400FF2802D1602084F8B0
:10573000240043462A4639462046D4F810C0E047A4
:10574000BDE8F08100202349087008E02148007876
:1057500010B12046FEF7C8FC01E00020F0E700BFD2
:105760000120EDE72DE9F04104460F461546984625
:10577000A7F11400062871D2DFE800F071030432AB
:10578000818500BF1448007878B114480078A8B12A
:105790002046FEF7A9FC94F8240000F0FC0084F8F1
:1057A00024002046FEF797FC08E094F8240000F05F
:1057B000FC0084F824002046FEF78DFC2946204694
:1057C000FEF781FC01200449087068E04C020020CB
:1057D000320000203300002034000020350000207B
:1057E0003048007880B130480078B8B92046FEF7DC
:1057F0007BFC94F8240000F0FC00801C84F824005A
:105800002046FEF768FC09E094F8240000F0FC0054
:10581000801C84F824002046FEF75DFC012021490D
:105820000870464610E03346182217212046D4F867
:1058300010C0E047A5F11800C5B218362046FEF7A3
:1058400053FC2046FEF747FC182DECDC33462A4675
:1058500017212046D4F810C0E04720E01DE094F85E
:105860002400FF2802D1702084F8240043462A46F1
:1058700039462046D4F810C0E047BDE8F08100204A
:10588000084908700BE00748007810B12046FEF781
:105890002BFC00200349087001E00020EDE700BF69
:1058A0000120EAE7340000203500002030B504462E
:1058B0000846CD1701EB5575ED105D4302EBC502AF
:1058C00001F007012244107801258D40284008B9D5
:1058D000002030BD0120FCE770B5044601FB03F059
:1058E00081B20A4402EBE402107804F00706802536
:1058F0003541284008B9002070BD0120FCE72DE9A2
:10590000F04105460E4614466BA0A047E80000F0A3
:1059100066FA0746A04769A0A047F00000F05FFACA
:105920000746A04765A0A047BDE8F0812DE9FF5FCD
:105930000C4615469B460E9EA1464FF6FF7000EAA8
:10594000C909AA4600EACA0A4FF0000816E0002773
:105950000CE0234641463846009AD84710B158A07B
:10596000B04701E057A0B047781C87B24F45F0DB45
:1059700052A0B04708F101001FFA80F8D045E6DBDD
:10598000BDE8FF9F2DE9F04105460E4614464EA0A6
:10599000A047E80000F023FA0746A04747A0A04729
:1059A0004EA0A047F00000F01AFA0746A04743A017
:1059B000A0474FA0A047BDE8F0812DE9FF4F83B07D
:1059C0000D461646109C00208DF80500AA464FF69D
:1059D000FF7000EACA0AB34600EACB0B4FF0000999
:1059E00000BF4FF0000800BF00270020029013E026
:1059F0007806070E08F10701029A891A88B22B4629
:105A00004946DDF818C0039AE04708B147F001079E
:105A10000298401CC0B2029002980828E8DB3EA021
:105A2000A04738118DF804009DF80400092806DC11
:105A30009DF804003030C0B28DF8040005E09DF8F8
:105A400004005730C0B28DF8040001A8A04707F049
:105A50000F008DF804009DF80400092806DC9DF86D
:105A600004003030C0B28DF8040005E09DF8040059
:105A70005730C0B28DF8040001A8A04708F1080013
:105A80001FFA80F8D04500DB02E024A0A047ABE776
:105A900000BF09F101001FFA80F9D94500DB04E0DD
:105AA0001EA0A04705A0A0479BE700BF1CA0A047E1
:105AB00007B0BDE8F08F000050310A000A00000076
:105AC000310000003000000023646566696E6520C7
:105AD00078626D5F7769647468200000236465668E
